:020000040800F2
:100000002812002029020008BB2100081D2000083A
:10001000B9210008DF050008B9250008000000002C
:100020000000000000000000000000002122000885
:100030009907000800000000BD21000823220008E5
:10004000430200084302000843020008430200087C
:10005000430200084302000843020008430200086C
:10006000430200084302000843020008430200085C
:100070000507000843020008430200084302000885
:10008000430200084302000843020008F905000883
:10009000E1050008ED0500084302000843020008DE
:1000A000430200084302000843020008430200081C
:1000B000430200084302000843020008430200080C
:1000C00043020008430200084302000843020008FC
:1000D00043020008F924000843020008052500082F
:1000E00043020008430200084302000843020008DC
:1000F00043020008430200084302000843020008CC
:1001000043020008430200084302000843020008BB
:1001100043020008430200084302000843020008AB
:10012000430200084302000843020008430200089B
:100130004302000843020008430200081D060008AD
:1001400005060008110600084302000843020008E3
:100150004302000843020008110700084302000898
:10016000430200084302000843020008430200085B
:100170004302000843020008430200080000000098
:10018000430200084302000800F002F800F03CF8C7
:100190000AA090E8000C82448344AAF10107DA45E2
:1001A00001D100F031F8AFF2090EBAE80F0013F0F8
:1001B000010F18BFFB1A43F001031847F430000089
:1001C00014310000103A24BF78C878C1FAD8520719
:1001D00024BF30C830C144BF04680C6070470000C1
:1001E0000023002400250026103A28BF78C1FBD840
:1001F000520728BF30C148BF0B6070471FB503F0DE
:1002000041F81FBD10B510BD00F001F91146FFF710
:10021000F5FF02F0E9FE00F01FF903B4FFF7F2FF6B
:1002200003BC00F027F9000009488047094800474F
:10023000FEE7FEE7FEE7FEE7FEE7FEE7FEE7FEE796
:10024000FEE7FEE704480549054A064B70470000F3
:10025000BD22000889010008280C00202812002077
:10026000280E0020280E002053EA020C00F06980BE
:100270002DE9F04B4FF00006002B1FBFB3FA83F5BA
:1002800003FA05F424FA05F65E4012BF1643B2FAEB
:1002900082F502FA05F4C5F120051EBF22FA05FC1D
:1002A00044EA0C04203556EA044C4FEA144418BFC3
:1002B000641C4FF000084FF00009904271EB030CF2
:1002C00039D3002919BFB1FA81F701FA07F6B0FA5C
:1002D00080F700FA07F6C7F120071EBF20FA07FCD7
:1002E00046EA0C062037B6FBF4FCA7EB0507103FE7
:1002F00007F01F0BCBF120060CFA0BFB2CFA06F6CD
:1003000044BFB3460026202FA4BF5E464FF0000B2B
:100310005BEA060C08BF4FF0010B19EB0B09ABFBB6
:10032000027C48EB0608C01B06FB02CC0BFB03CC8F
:1003300071EB0C01C1E70B46024641464846BDE859
:10034000F08B13B54FF000004FF00001AFF30080C9
:10035000BDE81C40704710B5203AC0F00B80B1E8F2
:100360001850203AA0E81850B1E81850A0E81850EA
:10037000BFF4F5AF5FEA027C24BFB1E81850A0E8F3
:10038000185044BF18C918C0BDE810405FEA827C0D
:1003900024BF51F8043B40F8043B08BF7047D20724
:1003A00028BF31F8023B48BF11F8012B28BF20F8C5
:1003B000023B48BF00F8012B70474FF0000200B528
:1003C000134694469646203922BFA0E80C50A0E878
:1003D0000C50B1F12001BFF4F7AF090728BFA0E826
:1003E0000C5048BF0CC05DF804EB890028BF40F8F2
:1003F000042B08BF704748BF20F8022B11F0804F34
:1004000018BF00F8012B704770477047704775465A
:1004100000F02CF8AE4605006946534620F0070070
:10042000854618B020B5FFF70DFFBDE820404FF01E
:1004300000064FF000074FF000084FF0000B21F0CE
:100440000701AC46ACE8C009ACE8C009ACE8C0099B
:10045000ACE8C0098D46704710B50446AFF3008084
:100460002046BDE81040FFF7D8BE000000487047A6
:10047000C40B002001491820ABBEFEE72600020095
:100480007047000080EC030A9FED0C0A80ED030A20
:1004900080ED040A80ED050A80ED060A80ED070A6A
:1004A00080ED080A80ED0C0A80ED0D0A80ED0E0A41
:1004B00080ED0F0A2430C0EC031A704700000000E2
:1004C00010B5C0ED070A80ED080A30EEC00A0446F8
:1004D00080ED030AD0ED040AD0ED001A30EE601A68
:1004E00021EE211A80ED0C1A90ED011A21EE001A6E
:1004F00080ED0D1AB0EE001A00EEC10AD0ED050A2B
:1005000004F1340030EE200AD4ED020A20EE200A75
:1005100084ED0E0A94ED090A02F05FF894ED0C0ADE
:10052000D4ED0D0A04F13C0030EE200AD4ED0E0AA1
:1005300030EE200A84ED0F0A94ED0A0A02F04DF81D
:1005400094ED040A84ED050A94ED030A84ED040A8F
:1005500094ED0F0A10BD10B5C0ED070A80ED080A32
:1005600030EEC00A044680ED030AD0ED000A60EECA
:10057000800AC0ED0C0AD0ED060A30EE800A80ED4C
:10058000060A90ED090A183002F027F894ED010AE6
:10059000D4ED060A04F13C0060EE200AC4ED0D0A19
:1005A00094ED030A94ED041A30EE410A94ED021A18
:1005B00020EE010A84ED0E0A94ED0C1A71EE200A69
:1005C00030EE800A84ED0F0A94ED0A0A02F005F875
:1005D00094ED030A84ED040A94ED0F0A10BDFEE7C2
:1005E000014800F058BA00002C000020014800F03B
:1005F00052BA00002C000020014800F04CBA000064
:100600002C000020014800F046BA000054000020F1
:10061000014800F040BA000054000020014800F0FA
:100620003ABA00005400002030B58BB08D0701F0BD
:1006300003040DD5C2F34F35D20042EA4402CDE99E
:100640000052C3F34F320292DA0042EA440205E05C
:100650005201009262005B01CDE901230392CA08B6
:10066000C1F38001CDE9041201220021CDE9061277
:100670000E2109910892694600F00CF90BB030BDCB
:1006800070B50D46044600F08FFC0221204600F0B4
:1006900086F81021204600F082F810492068884230
:1006A00006D10F4800231A468562082104600FE036
:1006B0000C49884211D10A4800232C301A46856221
:1006C000046078212046FFF7AFFF00231A468421FB
:1006D0002046BDE87040FFF7A7BF70BD0064004032
:1006E000CC0100200068004000B587B000910021D7
:1006F00001910291CDE9031306AB694600F061F860
:1007000007B000BD014800F0DDBC00006C01002016
:10071000014800F0D7BC00000C010020016818233C
:10072000CAB2103AB2FBF3F2054B6FF30901032A88
:100730009B5CC36500D9091D8165084670470000B0
:100740008E32000810B5014600208B698A6A4FF08E
:10075000C07453B1B3F5005F15D072B1012A0CD04B
:10076000022A0AD0032A09D104E01AB1012A06D0CC
:10077000022A03D1C96AC90100D5012010BDC96A86
:10078000A142FAD010BD002AF7D0012AF2D0022AE5
:10079000F3D0032AF3D010BD704772B6FEE790F88D
:1007A0002020012A07D0022A05D0416A41F4802185
:1007B000416201207047006842690A43426100209B
:1007C0007047F0B590F820500468A468012D05D05A
:1007D000022D03D0416A41F4802157E014F0406FAC
:1007E00001D1E5004FD5C4F301640125A5401D608A
:1007F0008D684FF4C0739DB1CE6835434E6845EAAD
:10080000C605066803EB0417F5514FF4C275076877
:1008100005EB04150E697E51097D012905D009E01B
:100820000E88CD6845EA4655EBE701684E5946F417
:1008300080764E511179D579567941EA05619579DD
:100840002D0445EA062529434FF4C676056806EBD4
:100850000416A9511178D57841EA05619578527846
:100860002D0445EA022211434FF4C475026805EBDA
:1008700004155151006803EB0411425842F0010283
:1008800042500020F0BD416A41F400114162012054
:10089000F0BD000010B590F82020012A07D0022AF0
:1008A00005D0416A41F480214162012010BD3B48DE
:1008B000D0F8002242F00102C0F80022D0F8002255
:1008C00022F47C52C0F80022D0F800224B6A42EA9F
:1008D0000322C0F800220A7D02F01F0301229A4081
:1008E000D0F81C329343C0F81C32CB69B3B9D0F8AE
:1008F0000C329343C0F80C328C894B6864F31F436D
:100900004C6900EBC404C4F840320C890B6864F3F2
:100910001F434C6900EBC404C4F84432CB69012B7B
:1009200016D1D0F80C321343C0F80C320C884B6847
:1009300064F31F434C6900EBC404C4F840320C89D3
:10094000CB6864F31F434C6900EBC404C4F8443221
:100950008B69002BD0F804320ED01343C0F8043258
:100960000B69002BD0F8143208D01343C0F81432AE
:10097000096A012904D008E09343EFE79343F5E7C0
:10098000D0F81C121143C0F81C12D0F8001221F04C
:100990000101C0F80012002010BD000000640040FA
:1009A000704770B590F82040012C05D0022C03D080
:1009B000416A41F4802128E0046809B32469A4074E
:1009C00020D04FF4D874056804EB01142D5915F0AC
:1009D0000405956005682D591AD0ED085560056825
:1009E0002C5904F00204D4604FF4DA74056804EB67
:1009F00001142E5906F00F06082E0CD308250DE021
:100A0000E468DCE7416A41F400114162012070BDF5
:100A10006D0D1560E3E72D5905F00F0515610568AB
:100A20002D59C5F30725956105682C59240C54618F
:100A30004FF4DC72046802EB0112A4581C700468C5
:100A4000A458240A5C700468A458240C9C700468A0
:100A5000A258120EDA704FF4DE72046802EB011233
:100A6000A4581C710468A458240A5C710468A45832
:100A7000240C9C710468A258120EDA71006829B126
:100A8000016941F020010161002070BDC16841F0A1
:100A90002001C160F8E72DE9F05F054600680024F9
:100AA0004669D0F804908768D0F80CB0D0F810A050
:100AB000D0F81880F10748D0F90714D001218160DF
:100AC000B80703D5284600F09CFA0CE0780702D559
:100AD0004FF4006407E0380702D54FF4805402E079
:100AE000284600F08DFAF80516D529684FF4807075
:100AF0008860B80503D5284600F085FA0CE0780533
:100B000002D544F4005407E0380502D544F480448B
:100B100002E0284600F076FAF80316D529684FF46B
:100B200080308860B80303D5284600F06EFA0CE0E8
:100B3000780302D544F4004407E0380302D544F4B6
:100B4000803402E0284600F05FFA300707D55FEAFC
:100B5000CB6004D52968102044F40074C860700785
:100B60004FF0080707D55FEA0B7004D52868C76007
:100B7000284600F0B9F9B00706D52868C068800794
:100B800002D0284600F0B2F9700607D55FEACA60C5
:100B900004D52968102044F480640861B00607D5A4
:100BA0005FEA0A7004D528680761284600F0D8F982
:100BB000F00606D528680069800702D0284600F0B4
:100BC000D1F9B00308D55FEAC96005D529681020BE
:100BD0004860284600F0E6F9F00307D55FEA09709F
:100BE00004D528684760284600F010FA300446D53E
:100BF0005FEA497040D5F00504D55FEAC87001D0BE
:100C000044F00104B00504D55FEA887001D544F0D2
:100C10000204700504D55FEA487001D544F004046D
:100C2000300529D518F0700F26D008F07000402844
:100C300015D006DC102809D020280AD0302816D17B
:100C40000AE050280ED0602811D10EE044F00804CC
:100C50000DE044F010040AE044F0200407E044F002
:100C6000400404E044F0800401E044F48074286807
:100C7000816921F070018161296804204860002C9D
:100C800005D0686A204368622846FFF789FEBDE800
:100C9000F09F70B5040003D094F8200010B104E078
:100CA000012070BD204600F081F82068016841F005
:100CB0000101016000F038FC0546052604E000F063
:100CC00033FC401B0A2811D820684068C007F6D0C2
:100CD0002068016821F00201016000F025FC054652
:100CE0000BE000F021FC401B0A2806D9606A40F4A2
:100CF0000030606284F82060D2E720684068800796
:100D0000EFD4207E0128206801683DD021F08001C9
:100D10000160607E01282068016838D021F0400120
:100D20000160A07E01282068016833D021F02001F5
:100D30000160E07E0128206801682ED041F010019A
:100D40000160207F01282068016829D021F0080176
:100D50000160607F01282068016824D021F004012F
:100D60000160D4E902010843D4E9041211430843A5
:100D70006168491E08432168C86100206062012043
:100D800084F82000002070BD41F08001C0E741F0F0
:100D90004001C5E741F02001CAE721F01001CFE78B
:100DA00041F00801D4E741F00401D9E7F0B587B07C
:100DB000044614216846FFF700FB464B4648DFF81F
:100DC00010E11968D4F800C0434A03250226092718
:100DD00010300024491CF44532D11960012907D193
:100DE000016841F000710160006800F0007005903A
:100DF000106840F0080010601068CDE9005600F05F
:100E00000800CDE9047069463448CDE9024500F098
:100E100093FA00221146132000F0F4FB132000F097
:100E2000E3FB00221146142000F0ECFB142000F03C
:100E3000DBFB00221146152000F0E4FB152042E008
:100E4000DFF89CE0F44540D1D0F800C04CF0806C55
:100E5000C0F800C0D0F800C001290CF0806CCDF8BB
:100E600014C0196007D1016841F000710160006889
:100E700000F000700590106840F0020010601068EB
:100E800002AB00F0020005906020CDE9000683E887
:100E9000B0006946134800F04FFA002211463F2087
:100EA00000F0B0FB3F2000F09FFB002211464020E5
:100EB00000F0A8FB402000F097FB002211464120E3
:100EC00000F0A0FB412000F08FFB07B0F0BD000058
:100ED000006400400400002030380240000C024052
:100EE00000680040000402407047000010B5174A37
:100EF0000168914219D1164B0021A3F12004221D53
:100F0000FFF74FFDA16A201D88470823114A990168
:100F10001148FFF7E9FB0F4A0823BDE81040083AE3
:100F200040F2FF110C48FFF7DFBB0C4A91420CD195
:100F3000074B00212C33A3F12004221DFFF731FDC4
:100F4000201DA16ABDE81040084710BD00640040A4
:100F5000EC010020200000202C0000200068004050
:100F60007047000010B50C4A0168914202D10B4B4A
:100F70001C4605E00A4A91420CD1084B2C331C4612
:100F8000221D01212033FFF70CFD201DA16ABDE8C1
:100F90001040084710BD000000640040CC01002054
:100FA000006800407047000070B5044690F82000CB
:100FB000012804D0606A40F40020606218E002203A
:100FC00084F820002068016821F00101016000F030
:100FD000ABFA05460EE000BF00F0A6FA401B0A2857
:100FE00008D9606A40F400306062052084F820006F
:100FF000012070BD20684068C007EDD1606270BDFF
:1010000070477047704770477047704770472DE9C9
:10101000F0410446876D00F087FA064694F83500E3
:101020000025022806D08020606584F83450012015
:10103000BDE8F0812068016821F016010160206898
:10104000416921F080014161206C08B9A06C20B198
:101050002068016821F0080101602068016821F022
:10106000010101600CE000F05FFA801B052807D940
:1010700020206065032084F8350084F83450D7E7D9
:1010800020680068C007EED194F85C103F208840CB
:10109000B860012084F8350084F834500020C7E798
:1010A00090F83510022903D0802141650120704756
:1010B000052180F835100068016821F00101016008
:1010C000002070472DE9F84304464FF00009CDF8A1
:1010D000009063484FF41651A56D0068B0FBF1F71E
:1010E0002E6894F85C10082000FA01F131420FD00C
:1010F00021680A6852070BD50A6822F004020A60C8
:1011000094F85C108840A860606D40F00100606554
:1011100094F85C104FF0010808FA01F0304208D052
:1011200021684969090604D5A860606D40F0020095
:10113000606594F85C1004208840304208D0216833
:101140000968890704D5A860606D40F004006065F7
:1011500094F85C1010208840304218D0216809684B
:10116000090714D5A86020680168490304D5006800
:10117000000308D5A16C07E00168C90503D4016824
:1011800021F008010160216C09B12046884794F8DC
:101190005C1020208840304231D021680968C9069F
:1011A0002DD5A86094F8350005282068016806D080
:1011B000490347D5006800031DD4616C1CE021F091
:1011C000160101602068416921F080014161206CB5
:1011D00008B9A06C20B12068016821F00801016005
:1011E00094F85C103F208840A86084F8358084F82B
:1011F0003490216D1FE0E16B09B120468847606D96
:1012000000282BD0606DC00714D0052084F835006D
:101210002068016821F0010101600098401C0090E5
:10122000B84203D820680068C007F6D184F835803A
:1012300084F83490E16C002910D001B02046BDE85C
:10124000F04308470168C905D5D4016821F01001B1
:10125000016084F8358084F83490CCE7BDE8F883E9
:10126000140000202DE9F041044600F05DF9064627
:101270005CB1022084F83500002584F834502068E1
:10128000016821F0010101600DE00120BDE8F0815D
:1012900000F04AF9801B052805D92020606503204D
:1012A00084F83500F2E720680068C007F0D12268B2
:1012B000116820480140D4E901031843D4E90336FA
:1012C0003343184363691843A3691843E369184318
:1012D000236A18430843616A042903D1D4E90B1334
:1012E00019430843106020684069666A20F00701CE
:1012F00030460E43012704280CD1A06A0643E06A59
:1013000040B12046FFF71EFA20B14020606584F806
:101310003570BAE7206846612046FFF7FFF994F878
:101320005C203F2191408160656584F83570002024
:10133000ACE700003F8010F02DE9F84FDFF8BCA1CA
:101340000022012503264FF00F090AF1040BAAF130
:10135000040E00BF0B6805FA02F42340A34270D1CB
:101360000F7907F00307012F01D0022F16D18768EC
:101370004FEA420806FA08FC27EA0C07D1F80CC02D
:101380000CFA08FC4CEA070CC0F808C04768A743F1
:101390000C79C4F3001494403C4344600C79E4435A
:1013A000A4070AD0C4684FEA420C06FA0CF7BC4303
:1013B0008F6807FA0CF72743C7600C7904F0030421
:1013C000022C12D1D40800EB840CDCF82040570723
:1013D000FF0E09FA07F824EA0804D1F8108008FA89
:1013E00007F848EA0408CCF8208004684FEA420C69
:1013F00006FA0CF7BC430F7907F0030707FA0CF75E
:10140000274307604C6814F4403F70D03C4C276879
:1014100047F480472760246822F0030704F48044DF
:101420000094384C07EB040CDCF8084897074FEAA7
:10143000177809FA08F7BC43334FB84202D10027A6
:1014400024E054E0314FB84201D101271EE0304F73
:10145000B84201D1022719E02E4FB84201D103272B
:1014600014E02D4FB84201D104270FE02B4FB842B2
:1014700001D105270AE02A4FB84201D1062705E02D
:10148000284FB84201D1072700E0082707FA08F7DC
:101490002743CCF80878DAF800405746D1F804C062
:1014A0009C435FEACC2C00D51C433C60DBF8004039
:1014B0005F46D1F804C09C435FEA8C2C00D51C43E6
:1014C0003C60DEF800407746D1F804C09C435FEAF8
:1014D0008C3C00D51C433C60084F083F3C68D1F869
:1014E00004C09C435FEACC3C00D51C433C60521CCA
:1014F000102AFFF42FAFBDE8F88F0000083C014030
:101500004438024000300140000002400004024024
:1015100000080240000C024000100240001402408B
:1015200000180240001C024001488068704700001B
:1015300008000020024881680278114481607047E9
:10154000080000200B4810B5016841F400710160EB
:10155000016841F480610160016841F480710160BB
:10156000032000F06FF80F2000F006F800F024F8D8
:10157000002010BD003C024070B50D4D04464FF4F4
:101580007A712878B1FBF0F00A490968B1FBF0F0F4
:1015900000F00CFB48B9102C07D200222146501E47
:1015A00000F030F800206C6070BD012070BD0000BC
:1015B00008000020140000200A4808B5016841F422
:1015C00080410160006800F4804000900548001FE1
:1015D000016841F080510160006800F08050009087
:1015E00008BD000044380240002809DB00F01F025B
:1015F000012191404009800000F1E020C0F8001175
:1016000070470000F0B40E4B1B680C46C3F3022376
:10161000C3F10705042D00D90425191D072901D29E
:10162000002300E0DB1E012606FA05F1491E2140D9
:1016300099409E40761E16403143F0BC00F0BDBF7D
:101640000CED00E0064900F0070208684FF6FF03C2
:10165000184040EA0220034A104308607047000027
:101660000CED00E00000FA052DE9F0470E460500FC
:1016700065D0DFF81481D8F80000F7B200F0070059
:10168000B04207D288F80070D8F8000000F00700D8
:10169000B04254D128683D4C810712D5400703D58C
:1016A000206840F4E05020602878000703D52068C7
:1016B00040F4604020602068A96820F0F0000843F2
:1016C00020602878C0072DD0304968680839012883
:1016D00012D0022813D0032811D0096889070029E5
:1016E0002DDA216821F0030101432160FFF71CFF7F
:1016F000814641F2883A0EE009688903EFE70968FC
:101700008901ECE7FFF710FFA0EB0901514502D971
:101710000320BDE8F0872068696800F00C00B0EB9A
:10172000810FEFD1D8F80010404601F00701B14217
:1017300007D90770006800F00700B04201D001200F
:10174000E7E72878400705D52068E96820F4E050ED
:10175000084320602878000706D52068296920F40E
:10176000604040EAC100206000F038F82168084A73
:10177000C1F30311515CC84006490860064800687F
:10178000FFF7FAFE0020C4E7003C024008380240A0
:1017900096320008140000200C000020044805497F
:1017A00000680968044AC1F38221515CC84070474F
:1017B0001400002008380240A632000804480549F9
:1017C00000680968044AC1F34231515CC84070475F
:1017D0001400002008380240A6320008154810B551
:1017E000006810F00C02144813D01449042A0FD0DA
:1017F000082A0ED10F4C241F2268236802F03F02F2
:101800005B0207D52068C0F38810A0FB010106E049
:10181000084610BD2168C1F38811A1FB0001002317
:10182000FEF722FD2168C1F30141491C4900B0FBCC
:10183000F1F010BD083802400024F40040787D012A
:101840002DE9F84F04006ED02078DFF84C93C007E4
:10185000A9F104054AD009F104000168C1F381012E
:10186000012908D00068C0F3810002280AD1D9F804
:101870000000400206D52868800337D5606800283C
:10188000E1D033E06068B0F5803F10D0B0F5A02F14
:10189000286810D020F480302860286820F4802048
:1018A00028606068A8B1FFF73FFE06460DE0286893
:1018B00040F48030F4E740F480202860F7E700BF70
:1018C000FFF732FE801B642873D828688003F7D5A1
:1018D0000CE0FFF729FE064605E000BFFFF724FEF7
:1018E000801B6428F0D828688003F7D42078DFF8BC
:1018F000AC8280074FF0000A3ED5A748001D016862
:1019000011F00C0F08D00068C0F3810002280BD141
:10191000D9F80000400207D42868800716D5E0688F
:10192000012800D112E033E1E068B8B10120C8F825
:101930000000FFF7F9FD064605E000BFFFF7F4FDE4
:10194000801B0228C0D828688007F7D5286821693D
:1019500020F0F80040EAC10028600DE0C8F800A0BF
:10196000FFF7E2FD064604E0FFF7DEFD801B0228DC
:101970001FD828688007F7D42078000722D5864F23
:1019800087486169703771B101210160FFF7CCFDB3
:10199000064604E0FFF7C8FD801B022809D8386816
:1019A0008007F7D50EE0C0F800A0FFF7BDFD0646A2
:1019B00005E082E0FFF7B8FD801B02287DD838687B
:1019C0008007F7D42078400768D5DFF8CCB100272E
:1019D0000BF13C0BDBF80000C0000BD4DBF800106F
:1019E00041F08051CBF80010DBF80000012700F037
:1019F000805000906B4E3068C00510D4306840F4C1
:101A000080703060FFF790FD009005E0FFF78CFDDF
:101A10000099401A022850D83068C005F6D55E4EAD
:101A2000A0686C3601280FD00528306810D020F04F
:101A300001003060306820F004003060A068B8B168
:101A4000FFF772FD00900FE0306840F00100F4E70E
:101A500040F004003060F7E7FFF766FD0099411A97
:101A600041F28830814266D830688007F4D50EE0B4
:101A7000FFF75AFD009007E0FFF756FD0099411A65
:101A800041F28830814256D830688007F4D42FB1B3
:101A9000DBF8001021F08051CBF80010A069C8B32A
:101AA0003D49091D0968C1F3810102294AD0022874
:101AB000504607D0C8F8600000E03CE0FFF734FD76
:101AC00004463BE04746C8F86000FFF72DFD064698
:101AD00005E000BFFFF728FD801B02282BD82868EF
:101AE0008001F7D4D4E907010843A16A2E4A4908C6
:101AF00002EB0141626A41EA8211084394F82C101A
:101B000040EA0161C9F8001001203866FFF70CFDBA
:101B1000044606E03EE000BFFFF706FD001B02287A
:101B200009D828688001F7D534E000BFFFF7FCFC36
:101B3000001B022802D90320BDE8F88F2868800125
:101B4000F4D427E00128F7D0D9F80000E26900F4C6
:101B5000800191421CD1226A00F03F01914217D1CD
:101B600047F6C071626A0140B1EB821F10D1A26AD0
:101B70004FF0FF3300F4403103EB5202B1EB024F60
:101B800006D194F82C1000F07060B0EB016F01D01A
:101B90000120D1E70020CFE704380240000047428F
:101BA000800E4742007000400000FFFF10B5401E4D
:101BB000B0F1807F01D3012010BD4FF0E0246061BF
:101BC0000F21601700F0F9FC0020A06107202061C0
:101BD000002010BD70477047F8B5016804460868DA
:101BE000CA684B6910F00F0F4FF0000559D003F091
:101BF000010602F49077374365D0C10705D0D105BF
:101C000003D5616C41F001016164410705D5D90735
:101C100003D0616C41F002016164810705D5D907E9
:101C200003D0616C41F004016164010707D502F043
:101C30002001314303D0616C41F008016164616CA3
:101C400000293AD0800604D5900602D5204600F03F
:101C50006CFB20684069616CC0F38010090700D4F8
:101C600060B3204600F03AFB20684069400621D569
:101C70002068143050E8001F21F0400140E80012B5
:101C8000002AF5D1E06BA8B16E490165E06BFFF762
:101C900007FA002811D0E06B016D01B0BDE8F040FB
:101CA000084783060FD593060DD52046BDE8F840BA
:101CB00000F03BBB2046FFF78EFFF8BD2046FFF744
:101CC0008AFF6564F8BD266B2023012E7DD1C606F0
:101CD0007BD5D60679D508684868009048694FF0EA
:101CE0000206400641D5E16B086840680004000C1C
:101CF000E8D0A28D8242E5D9E085C869B0F5807F41
:101D00002DD020680C3050E8001F21F4807140E88D
:101D10000012002AF5D12068143050E8001F21F08D
:101D2000010140E80012002AF5D12068143050E883
:101D3000001F21F0400140E80012002AF5D184F88C
:101D40004230256320680C3050E8001F21F010015C
:101D500040E80012002AF5D1E06BFFF758F96663FE
:101D6000A08DE18D401A81B22AE0A08DE18D401A4C
:101D700081B2E08D0028A5D00029A3D022680C32C2
:101D800052E8000F20F4907042E80007002FF5D1D0
:101D90002068143050E8002F22F0010240E80027AC
:101DA000002FF5D184F84230256320680C3050E8CC
:101DB000002F22F0100240E80023002BF5D16663CB
:101DC0002046FFF707FFF8BDFFE705062BD51506F0
:101DD00029D594F841002128F5D1A068B0F5805F9D
:101DE00001D12069B0B1206A411C216221680078CC
:101DF0004860E08C401E0004000CE084E3D12068C1
:101E0000C16821F08001C1602068C16841F04001D3
:101E1000C160D8E7206A0088C0F308004860206AE3
:101E2000801C2062E5E74006CDD55006CBD5CA68B8
:101E3000204622F04002CA6084F8413000F0EDF8FC
:101E4000C1E70000CD22000870B5040004D094F86A
:101E50004100002510B106E0012070BD84F840501B
:101E6000204600F023F8242084F841002068C1684F
:101E700021F40051C160204600F0B8FA20680169E1
:101E800021F4904101612068416921F02A014161FA
:101E90002068C16841F40051C1606564202084F865
:101EA000410084F842006563002070BD2DE9F04FC9
:101EB00087B0064614216846FEF77FFA4D4B31681D
:101EC00000244D480225032207274FF000694FF4F4
:101ED000806A4FF4403B99424AD1474914310B681C
:101EE00043F010030B60096801F0100105910168CF
:101EF00041F002010160016801F0020105910168F1
:101F000041F0010101600068CDE9024200F00100EA
:101F100005908020CDE90005904669460497374832
:101F2000FFF70AFA2802CDE90005CDE90248694623
:101F300004973348FFF700FA334D3248E5E80209C9
:101F40004020A5E81104304845F81449AC61C5E9C2
:101F5000074B6C62FFF786F908B1FEF71EFCB5630C
:101F6000002211462520AE63FFF74CFB25203BE005
:101F7000264B99423AD1204910310B6843F4802313
:101F80000B60096801F480210591016841F00401AA
:101F900001600068CDE9024200F0040005904FF4B2
:101FA0004060CDE90005694604971948FFF7C4F978
:101FB000154D184860352860C5E90194C5E9034A04
:101FC00080156C61C5E90640C5E908B42846FFF7ED
:101FD00049F908B1FEF7E1FBF5630022114627201D
:101FE000AE63FFF70FFB2720FFF7FEFA07B0BDE84F
:101FF000F08F000000100140303802400004024021
:1020000000000240B86402400C010020004800407B
:10201000000802402860024070477047FEE7000059
:102020000F4810B50D4901600421416000214FF4B3
:10203000A0228160C0E903124FF4001242610176D0
:1020400041768176C17601774177FEF722FE00283E
:1020500003D0BDE81040FEF7A0BB10BD00640040F7
:102060002C0000200F4810B50D490160042141608B
:1020700000214FF4A0228160C0E903124FF4001246
:102080004261017641768176C17601774177FEF72C
:1020900000FE002803D0BDE81040FEF77EBB10BD57
:1020A0000068004054000020114808B5016841F460
:1020B00080010160016801F480010091016841F430
:1020C000001101600068002200F400100090114629
:1020D0000C20FFF797FA0C20FFF786FA0022114632
:1020E0004620FFF78FFABDE808404620FFF77CBA8C
:1020F00030380240114808B5016841F00201016022
:10210000016801F002010091016841F008010160DD
:10211000016801F008010091016841F004010160CB
:10212000016801F004010091016841F001010160C2
:10213000006800F00100009008BD00003038024047
:102140000C4810B50A4901604FF4E13141600021AB
:1021500081600C22C160C0E904128161C161FFF796
:1021600073FE002803D0BDE81040FEF716BB10BD7B
:10217000001001407C0000200D4810B50B490160A3
:102180000C49416000214FF480628160C0E9031274
:102190000C22C0E90521C161FFF756FE002803D0DB
:1021A000BDE81040FEF7F9BA10BD0000004800403D
:1021B000C4000020A0860100FEE7FEE77047000093
:1021C00030B5144B1C68656945F0400565611B68B6
:1021D000DC6844F01004DC600F4B1C68256825F0B7
:1021E000010525601C682568ED07F7D11D680B4CBB
:1021F000AC601C68E060186801611868426018688B
:10220000016841F4802101601868016841F0010112
:10221000016030BDC40000206C0100200448004073
:102220007047FFF787B9000030B593B0302168469A
:10223000FEF7C3F814210CA8FEF7BFF81D480025CF
:10224000016841F080510160006800F080501190F9
:102250001948016841F4804101600068022400F4DB
:102260008040119001200390102004900094069467
:102270000820CDE90750A020CDE9090404200B90E7
:102280006846FFF7DDFA08B172B6FEE70CA90F2029
:1022900081E831004FF4A0500F904FF4805010901F
:1022A00005210CA8FFF7E0F9002801D072B6FEE77F
:1022B00013B030BD40380240007000400248016851
:1022C00041F470010160704788ED00E010B5806B4B
:1022D0000021C185C184FFF77EFC10BD01680C316F
:1022E00051E8002F22F4907241E80023002BF5D131
:1022F0000168143151E8002F22F0010241E8002367
:10230000002BF5D1016B012909D101680C3151E88D
:10231000002F22F0100241E80023002BF5D12021EC
:1023200080F8421000210163704708B590F8421010
:10233000222901D0022008BD82684FF480539A42BE
:1023400001D1016921B1816A9A421BD04AB10AE0E8
:102350000268816A5268C2F308020A80816A891C95
:1023600008E0026972B10268526802F07F020A70E6
:10237000816A491C8162C18D491E0904090CC1850D
:1023800003D01BE002685268F1E70168CA6822F0D6
:102390002002CA600168CA6822F48072CA600168BB
:1023A0004A6922F001024A61202180F8421000218E
:1023B0004163026B012A03D0FFF72EFE002008BD07
:1023C000016301680C3151E8002F22F0100241E84E
:1023D0000023002BF5D101680A68D20602D50A68ED
:1023E00049680091818DFFF7F5FBE7E770B504467A
:1023F00000680169E26821F44051114301612169DB
:10240000A068E26908436169114308432168CA680A
:1024100049F20C639A430243CA6020684169A26989
:1024200021F440711143416131492068884202D052
:102430003049884202D1FFF7C1F901E0FFF7AEF958
:10244000E2690023192164253226B2F5004F626843
:1024500028D0A0FB0101930F9200FDF705FF014674
:10246000B0FBF5F06FF01802504301EB800006EB73
:102470000010B0FBF5F000F0F002B1FBF5F002EB5C
:102480000012B1FBF5F06FF01803584301EB800028
:1024900006EB0010B0FBF5F000F00F0021681044CF
:1024A000886070BDA0FB010192185B41FDF7DCFE66
:1024B0000146B0FBF5F00201B1FBF5F06FF0180337
:1024C000584301EB800006EBC000B0FBF5F000F0D4
:1024D000F80002EB4002B1FBF5F0584301EB80003D
:1024E00006EBC000B0FBF5F000F00700D6E70000F7
:1024F00000100140001401400148FFF76DBB0000CF
:102500007C000020264818B400680168890604D5BC
:1025100001684068009018BC704722490968C906E4
:10252000F9D501684068204A0090106801684FF0B2
:1025300024030C031D49046824F00104046016D42C
:1025400010684468C4F12404A4B20C80436010688D
:10255000016841F4002101601068016841F0010147
:102560000160122CD7D1124901F1160015E0146850
:102570006068C0F1240080B2088063600D498B6AF6
:1025800023F400238B6211680A6842F001020A609A
:102590001228C0D1064901F13A0018BC00F00EBE65
:1025A000C4000020004800406C01002028000020EA
:1025B000640B002000600240FEE70907090E0028B6
:1025C00004DB00F1E02080F80014704700F00F00F9
:1025D00000F1E02080F8141D7047D0ED000AF4EE01
:1025E000C00AF1EE10FA01DD80ED000AD0ED000A1C
:1025F000B1EE400AF4EEC00AF1EE10FA01D280ED1D
:10260000000A704710B50181002202808271428069
:10261000828042818281C281026142618261A1F233
:10262000012180F8242000F1280300F16804082922
:1026300049D2DFE801F0040C141C242C343C402265
:1026400021491846FDF787FE4022204936E0402206
:102650001F491846FDF77FFE40221E492EE040220A
:102660001D491846FDF777FE40221C4926E040220E
:102670001B491846FDF76FFE40221A491EE0402212
:1026800019491846FDF767FE4022184916E0402216
:1026900017491846FDF75FFE402216490EE040221A
:1026A00015491846FDF757FE4022144906E040221E
:1026B00013491846FDF74FFE124940222046BDE857
:1026C0001040FDF748BE10BD6407002064090020DB
:1026D000A4070020A4090020E4070020E40900204A
:1026E00024080020240A002064080020640A002036
:1026F000A4080020A40A0020E4080020E40A002026
:1027000024090020240B00202DE9F041FB4DFC4E54
:1027100017462DED028BB0EE408A044600F12808E2
:1027200091B301297ED16088E081A189411A21619C
:1027300011F5805F02DAA269521CA261B1F5805FD7
:10274000A16901DD491EA16100EB41316161A081F8
:10275000B0EE480A00F01EFD00EE100A04F1680019
:10276000F8EEC00A94ED050AB8EEC00AFDF7F3FED4
:10277000BDEEC00A10EE100A00B2A0832189A1F2BA
:10278000012108294ED200E005E0DFE801F0FAF966
:10279000F8F7F6F5F4F367B1012A43D12089A0F2E6
:1027A000012008283ED2DFE800F0F5F3F2F1F0EF67
:1027B000EEED2089A0F20120082833D2DFE800F0F6
:1027C000041F3C57728DA8C32888F0EE480A40BA0F
:1027D0006081B4F9000000EE100A4046B8EEC00A6D
:1027E000FDF76EFEBDEEC00AB4F90A1010EE100A35
:1027F00001FA80F06081000A2870A07A6870688809
:10280000F0EE480A40BA6081B4F9000000EE100A08
:102810004046B8EEC00AFDF753FEBDEEC00A10EE0A
:10282000100A00E014E3B4F90A1001FA80F06081A4
:10283000000AA870A07AE870A888F0EE480A40BAAA
:102840006081B4F9000000EE100A4046B8EEC00AFC
:10285000FDF736FEBDEEC00AB4F90A1010EE100AFC
:1028600001FA80F06081000A2871A07A6871E88816
:10287000F0EE480A40BA6081B4F9000000EE100A98
:102880004046B8EEC00AFDF71BFEBDEEC00AB4F923
:102890000A1010EE100A01FA80F06081000AA87197
:1028A000A07AE8713088F0EE480A40BA6081B4F945
:1028B000000000EE100A4046B8EEC00AFDF700FE28
:1028C000BDEEC00AB4F90A1010EE100A01FA80F049
:1028D0006081000A3070A07A70707088F0EE480A4B
:1028E00040BA6081B4F9000000EE100A4046B8EE2C
:1028F000C00AFDF7E5FDBDEEC00AB4F90A1010EEFE
:10290000100A01FA80F06081000AB070A07AF070BD
:10291000B088F0EE480A40BA6081B4F9000000EED9
:10292000100A4046B8EEC00AFDF7CAFDBDEEC00A67
:10293000B4F90A1010EE100A01FA80F06081000A62
:102940003071A07A7071F088F0EE480A40BA608168
:10295000B4F9000000EE100A4046B8EEC00AFDF7D8
:10296000AFFDBDEEC00AB4F90A1010EE100A01FA6C
:1029700080F0AAE034E2FBE1C2E189E150E117E135
:10298000DEE0A5E092E07DE068E053E03EE029E093
:1029900014E0FFE7B4F90000F0EE480A00EE100A78
:1029A0004046B8EEC00AFDF7D6FDBDEEC00A10EEF7
:1029B000100A6081000A2870A07A6870B4F90000DB
:1029C000F0EE480A00EE100A4046B8EEC00AFDF7E5
:1029D000C2FDBDEEC00A10EE100A6081000AA870A8
:1029E000A07AE870B4F90000F0EE480A00EE100A90
:1029F0004046B8EEC00AFDF7AEFDBDEEC00A10EECF
:102A0000100A6081000A2871A07A6871B4F9000088
:102A1000F0EE480A00EE100A4046B8EEC00AFDF794
:102A20009AFDBDEEC00A10EE100A6081000AA8717E
:102A3000A07AE871B4F90000F0EE480A00EE100A3E
:102A40004046B8EEC00AFDF786FDBDEEC00A10EEA6
:102A5000100A6081000A3070A07A7070B4F900002A
:102A6000F0EE480A00EE100A4046B8EEC00AFDF744
:102A700072FDBDEEC00A10EE100A6081000AB0704F
:102A8000A07AF070B4F90000F0EE480A00EE100AE7
:102A90004046B8EEC00AFDF75EFDBDEEC00A10EE7E
:102AA000100A6081000A3071A07A7071B4F90000D8
:102AB000F0EE480A00EE100A4046B8EEC00AFDF7F4
:102AC0004AFDBDEEC00A10EE100A608180B2BBE183
:102AD000012F01D0B7B12EE000EE100AB4F90000CA
:102AE000F8EEC00A00EE100A4046B8EEC00AFDF744
:102AF00032FDBDEEC00A10EE100A1BE020000020DF
:102B000018000020298800EE100A49BA6181B4F942
:102B10000000F8EEC00A00EE100A4046B8EEC00A07
:102B2000FDF7CEFCBDEEC00AB4F90A1010EE100A93
:102B300001FA80F060816089000A2870A07A6870CC
:102B4000012F01D0A7B12EE0B4F91C0000EE100A4D
:102B5000B4F90000F8EEC00A00EE100A4046B8EEE4
:102B6000C00AFDF7F8FCBDEEC00A10EE100A19E02D
:102B7000688840BA6081B4F91C0000EE100AB4F90C
:102B80000000F8EEC00A00EE100A4046B8EEC00A97
:102B9000FDF796FCBDEEC00AB4F90A1010EE100A5B
:102BA00001FA80F060816089000AA870A07AE8705C
:102BB000012F01D0A7B12EE0B4F91C0000EE100ADD
:102BC000B4F90000F8EEC00A00EE100A4046B8EE74
:102BD000C00AFDF7C0FCBDEEC00A10EE100A19E0F5
:102BE000A88840BA6081B4F91C0000EE100AB4F95C
:102BF0000000F8EEC00A00EE100A4046B8EEC00A27
:102C0000FDF75EFCBDEEC00AB4F90A1010EE100A22
:102C100001FA80F060816089000A2871A07A6871E9
:102C2000012F01D0A7B12EE0B4F91C0000EE100A6C
:102C3000B4F90000F8EEC00A00EE100A4046B8EE03
:102C4000C00AFDF788FCBDEEC00A10EE100A19E0BC
:102C5000E88840BA6081B4F91C0000EE100AB4F9AB
:102C60000000F8EEC00A00EE100A4046B8EEC00AB6
:102C7000FDF726FCBDEEC00AB4F90A1010EE100AEA
:102C800001FA80F060816089000AA871A07AE87179
:102C9000012F01D0A7B12EE0B4F91C0000EE100AFC
:102CA000B4F90000F8EEC00A00EE100A4046B8EE93
:102CB000C00AFDF750FCBDEEC00A10EE100A19E084
:102CC000308840BA6081B4F91C0000EE100AB4F9F3
:102CD0000000F8EEC00A00EE100A4046B8EEC00A46
:102CE000FDF7EEFBBDEEC00AB4F90A1010EE100AB3
:102CF00001FA80F060816089000A3070A07A7070FB
:102D0000012F01D0A7B12EE0B4F91C0000EE100A8B
:102D1000B4F90000F8EEC00A00EE100A4046B8EE22
:102D2000C00AFDF718FCBDEEC00A10EE100A19E04B
:102D3000708840BA6081B4F91C0000EE100AB4F942
:102D40000000F8EEC00A00EE100A4046B8EEC00AD5
:102D5000FDF7B6FBBDEEC00AB4F90A1010EE100A7A
:102D600001FA80F060816089000AB070A07AF0708A
:102D7000012F01D0A7B12EE0B4F91C0000EE100A1B
:102D8000B4F90000F8EEC00A00EE100A4046B8EEB2
:102D9000C00AFDF7E0FBBDEEC00A10EE100A19E014
:102DA000B08840BA6081B4F91C0000EE100AB4F992
:102DB0000000F8EEC00A00EE100A4046B8EEC00A65
:102DC000FDF77EFBBDEEC00AB4F90A1010EE100A42
:102DD00001FA80F060816089000A3071A07A707118
:102DE000012F01D0A7B12EE0B4F91C0000EE100AAB
:102DF000B4F90000F8EEC00A00EE100A4046B8EE42
:102E0000C00AFDF7A8FBBDEEC00A10EE100A19E0DB
:102E1000F08840BA6081B4F91C0000EE100AB4F9E1
:102E20000000F8EEC00A00EE100A4046B8EEC00AF4
:102E3000FDF746FBBDEEC00AB4F90A1010EE100A09
:102E400001FA80F060816089000AB071A07AF071A7
:102E5000BDEC028BBDE8F08109286ED2DFE800F0FE
:102E60006D05121F2C3946536000888B42BA3348D7
:102E70004280CA8B52BA02800A8C52BA828091F880
:102E800022208271888B42BA2D484280CA8B52BA66
:102E900002800A8C52BA828091F822208271888B3B
:102EA00042BA28484280CA8B52BA02800A8C52BA6F
:102EB000828091F822208271888B42BA2248428017
:102EC000CA8B52BA02800A8C52BA828091F82220B0
:102ED0008271888B42BA1D484280CA8B52BA0280E6
:102EE0000A8C52BA828091F822208271888B42BA71
:102EF00017484280CA8B52BA02800A8C52BA82802A
:102F000091F822208271888B42BA12484280CA8B83
:102F100052BA02800A8C52BA828091F822208271C1
:102F2000888B42BA0C484280CA8B52BA02800A8C03
:102F300052BA828091F822108171704724020020D9
:102F4000CC020020740300201C040020C4040020D4
:102F50006C05002014060020BC06002010B5016896
:102F6000A1F20121042933D2DFE801F0023211205D
:102F700001460120FFF770FF16480122B0F91C102E
:102F800000EE101A90F82410B8EEC00A1CE00146BA
:102F90000320FFF761FF10480122B0F91C1000EE7A
:102FA000101A90F82410B8EEC00A0DE00146042073
:102FB000FFF752FF09480122B0F91C1000EE101A69
:102FC00090F82410B8EEC00ABDE81040FFF79CBB93
:102FD00010BD000024020020740300201C04002007
:102FE00000487047640B00202DED048BFEF7AAFA11
:102FF000FFF71AF9FFF77EF8FFF756F8FFF710F81A
:10300000FFF730F8FFF79CF8FFF7B6F800F0CEF8BE
:1030100000F02EF9FFF7E4FF4D4F40F20121386038
:103020004C48FFF7EFFA40F202214B48FFF7EAFA6B
:1030300040F203214948FFF7E5FA4FF4017148488F
:10304000FFF7E0FA40F205214648FFF7DBFA40F2CD
:1030500006214548FFF7D6FA40F207214348FFF71B
:10306000D1FA4FF402714248FFF7CCFAF3EE042A8A
:10307000DFED408AB0EE682A9FED3F9A9FED3F8AD0
:103080003448F0EE491AB6EE001AF0EE480AB1EEF6
:103090000D0A2830FDF7F6F92E48F3EE042AB0EEBB
:1030A000682AF0EE491A9FED361ADFED360AB1EEC6
:1030B000040A6830FDF7E6F926480025DFED329A6C
:1030C00080F8245085832648F3EE042AB0EE682A5F
:1030D000F0EE491AB0EE481AF0EE690AB1EE040AB1
:1030E0002830FDF7CFF91E4E1C48F3EE042A86F86F
:1030F0002450B0EE682AF0EE491AB0EE481AF0EE0D
:10310000690AB1EE040A2830FDF7BCF9134C1F49D7
:103110001F4884F82450B583A583FDF7B1FA41F226
:103120007C5140F6B83338684A42C3F1000C877AC4
:10313000012F01D1B183A283877A022F02D1B383F9
:10314000A4F81CC0877A032FF1D1B583A583EEE7DD
:103150000000002024020020CC0200207403002084
:103160001C040020C40400206C050020140600206C
:10317000BC06002000007A4600401C469A99993E01
:10318000000048420AD7233CCDCCCC3D5D2F00083F
:103190002C000020DFED040A20EE200ABDEEC00A5C
:1031A00010EE100A70470000000000460249242279
:1031B000A1F12400FFF704B89E0B0020F0B5002811
:1031C00055D0002953D00278437842EA0322C2F353
:1031D0000A020A8043788478DB0843EA4413C3F385
:1031E0000A034B808478C578A40944EA85040579EC
:1031F00044EA8524C4F30A048C80057946796D0875
:1032000045EAC615C5F30A05CD804679C6F3011611
:103210008E724679B609CE728679C77946EA072654
:103220008E81067A477A46EA0726CE81867AC77A61
:1032300046EA07260E82067B8E74467BCE74867B1A
:10324000C77B46EA07268E82067C407CA2F5806218
:103250000A80A3F580634B80A4F5806446EA0020D1
:103260008C80A5F58065CD80A0F580600881F0BDDB
:1032700003480068416941F08001416170470000E6
:103280007C0000204FF04070E1EE100A704700060D
:1032900010160006101600000000000000000102D9
:1032A00003040607080900000000010203040000EF
:1032B000D0320008000000202C000000C4010008EB
:1032C000FC3200082C000020FC110000E001000886
:1032D00000000000000000000100000010000000DD
:1032E000000000000024F4000000000000000000C6
:0C32F000000000000000000000000000D2
:040000050800018965
:00000001FF
